:100E2D00D3EF9400EE940040147D7A7C00ED1D709C
:0D0E3D00011CED4C70F7EF1F70E61E80E306
:010E4A002285
:030F0A00011901C9
:100BAC00E4F50EF50DF50CF50B120EF77F90120E09
:100BBC004B120EE47FEE120E4B120EE4120EEEE50B
:100BCC0019B401097FEE7E02120E2D0519120EF7D3
:100BDC007F90120E4B120EE47FAA120E4B120EE4F3
:100BEC00120EEE120EF77F91120E4B120EE4120E35
:100BFC00698F09120EC5120E698F0A120EFE120EA3
:100C0C00EE120EF77F90120E4B120EE47F22120E94
:100C1C004B120EE4120EEE751A01E50930E70AE5E7
:100C2C000AB480056309FF8017E50930E715E50A6A
:100C3C006480600FE50964806009E509F404F50936
:100C4C00751AFFE50AC41313135401FCE412028451
:100C5C00E4FBFAF9783F1200FBC004C005C006C0E3
:100C6C0007AC09E4120284D003D002D001D00012E8
:100C7C00000AC004C005C006C007AC1AEC120284FE
:100C8C00D003D002D001D0001200FB8F0E8E0D8D40
:030C9C000C8C0BB2
:010C9F002232
:100A10005455524E494E47204F4E00534543555270
:100A2000495459204D4F44450053656375726974AC
:100A300079205475726E6564204F4E0053454355BE
:100A400052495459204953204F4E004576657279DA
:100A50007468696E67206973204F4B005455524E7D
:100A6000494E47204F464600536563757269747955
:100A7000205475726E6564204F464600496E74724C
:100A80007564657220697320696E20796F757220B4
:100A9000706C6163652E00494E5452554445522096
:100AA000495320494E00594F555220504C4143451F
:100AB0000054656D70617261747572652069732090
:100AC000686967682E0054454D504552415455524F
:100AD000452049530048494748004C50472F736D03
:100AE0006F6B652069732064657465637465640069
:100AF0004C50472F534D4F4B4500444554454354AC
:100B0000454400486F75736520646F6F72732F776B
:100B1000696E646F7773206F70656E656400444F13
:100B20004F52532F57494E444F575300415245207F
:100B30004F50454E00426F6F74696E672E2E2E0027
:100B40004155544F4D4154494F4E204D4F4445005F
:100B500041544530004155544F4D4154494F4E206A
:100B60004F4E0052454C415820594F555220534545
:100B70004C4600534F4D45204F4E452057414E5453
:100B80005300544F204D45455420594F550047417F
:100B9000532C534D4F4B4520495300444554454336
:0C0BA00054454420494E20484F4D45006C
:080D2C00AF18AE17AD16AC15AF
:080D34008F0C8E0B8D0A8C0957
:100D3C00E4FFFE7DC87C42AB0CAA0BA90AA80912E1
:100D4C0000FB1202B88E138F147B047A00EB640242
:100D5C004A7008740D2BF8762E8024AE13AF147CD9
:100D6C00007D0A120352ED2430FF740D2BF8A607F8
:100D7C00AE13AF147C007D0A1203528E138F14EB4A
:100D8C001B70011ABAFFC6BBFFC37B007A00790D3A
:010D9C002234
:1003EB00C201C202C203C204C205D2977F01120F1F
:1003FB00057F80120F057BFF7A0A79107D01120DA4
:10040B009D7F0F7E00120E2D7FC0120F057BFF7A92
:10041B000A791B7D01120D9D7FFA7E00120E2D12A3
:10042B000E0D7BFF7A0A7929120DC67F327E0012E0
:10043B000E2D7F1A120ED0120BAC8F188E178D1635
:10044B008C15309403020521E4FFFE7D0C7C42AB3E
:10045B0018AA17A916A81512020160054003020578
:10046B0021209003020521209603020521E4FFFEC3
:10047B007D047C42AB18AA17A916A81512020160BD
:10048B00025004C2B2C2A4C2A2C2A6C2A3C2A7C2D5
:10049B0005C204C203C2022001057F01120F057FB2
:1004AB0081120F057BFF7A0A793CE4FD120D9D7FCB
:1004BB00C0120F057BFF7A0A794BE4FD120D9DD21A
:1004CB0001C2023093030204423000030204427F54
:1004DB0001120F057F80120F057BFF7A0A795CE40E
:1004EB00FD120D9D7FC0120F057BFF7A0A791BE46D
:1004FB00FD120D9D7FE87E03120E2D120E0D7BFF5C
:10050B007A0A7968120DC67F327E00120E2D7F1A81
:10051B00120ED0C29722309477D2A6D2A220021804
:10052B00120E0D7BFF7A0A797C120DC67F327E008C
:10053B00120E2D7F1A120ED07F01120F057F811222
:10054B000F057BFF7A0A79977D01120D9D7FC312F0
:10055B000F057BFF7A0A79A67D01120D9DE4FFFE44
:10056B007D047C42AB18AA17A916A81512020160CC
:10057B00025004C2A4C2B2309004C2A3D2A23096DD
:10058B0004C2A7C2A2C201D2027FFA7E00120E2DB4
:10059B00E4FFFE7D0C7C42AB18AA17A916A8151216
:1005AB00020160734071D2A4D2B2200318120E0D57
:1005BB007BFF7A0A79B1120DC67F327E00120E2DA7
:1005CB007F1A120ED07F01120F057F81120F057B50
:1005DB00FF7A0A79C67D01120D9D7FC3120F057B31
:1005EB00FF7A0A79D57D01120D9D7FC8120F051276
:1005FB000D2C7D01120D9D209404C2A6C2A2309039
:10060B0004C2A3D2A2309604C2A7C2A2C201D203D3
:10061B007FFA7E00120E2D209077D2A3D2A2200457
:10062B0018120E0D7BFF7A0A79DA120DC67F327E15
:10063B0000120E2D7F1A120ED07F01120F057F8430
:10064B00120F057BFF7A0A79F07D01120D9D7FC495
:10065B00120F057BFF7A0A79FA7D01120D9D20940A
:10066B0004C2A6C2A2E4FFFE7D047C42AB18AA170B
:10067B00A916A81512020160025004C2A4C2B2301E
:10068B009604C2A7C2A2C201D2047FFA7E00120E48
:10069B002D309603020442D2A7D2A2200518120EC7
:1006AB000D7BFF7A0B7903120DC67F327E00120E83
:1006BB002D7F1A120ED07F01120F057F82120F05AC
:1006CB007BFF7A0B791E7D01120D9D7FC4120F05E6
:1006DB007BFF7A0B792C7D01120D9D209404C2A611
:1006EB00C2A2E4FFFE7D047C42AB18AA17A916A890
:1006FB001512020160025004C2A4C2B2309004C2AF
:10070B00A3C2A2C201D2057FFA7E00120E2D0204F3
:01071B00429B
:10071C00E4F508C2A2C2B2D290C293C294C295D2DE
:10072C0096C2A2C2A3C2A4C2A6C297C2A7120EA806
:10073C00120E987F01120F057F80120F057BFF7A36
:10074C000B79357D01120D9D7FE87E03120E2D7FF6
:10075C0001120F057F80120F057BFF7A0A79107D3D
:10076C0001120D9D7FC0120F057BFF7A0B79407D26
:10077C0001120D9D7FE87E03120E2D7BFF7A0B7903
:10078C0050120DC67F327E00120E2DC29730935F31
:10079C00C2A57F01120F057F80120F057BFF7A0A1D
:1007AC00795C7D01120D9D7FC0120F057BFF7A0BCA
:1007BC0079407D01120D9D7FE87E03120E2DC20043
:1007CC001203EB7F01120F057F80120F057BFF7A5E
:1007DC000A79107D01120D9D7FC0120F057BFF7AE7
:1007EC000B79407D01120D9D7FE87E03120E2D20AA
:1007FC009803020880120EDAEF64527077120EDA48
:10080C00EF6449706F120EDAEF644E7067120EDAF5
:10081C00EF6447705FC2A57F01120F057F80120F36
:10082C00057BFF7A0A795C7D01120D9D7FC0120F4A
:10083C00057BFF7A0B79407D01120D9D7FE87E03CD
:10084C00120E2DD2001203EB7F01120F057F8012C6
:10085C000F057BFF7A0A79107D01120D9D7FC01266
:10086C000F057BFF7A0B79407D01120D9D7FE87E91
:10087C0003120E2D120BAC8F188E178D168C1520A3
:10088C00946C309069E4FFFE7D0C7C42AB18AA1787
:10089C00A916A81512020160025053E4FFFE7D0454
:1008AC007C42AB18AA17A916A815120201600250B7
:1008BC0004C2B2C2A4D2A5C2A3C2A2E50870057F2D
:1008CC0001120F057F80120F057BFF7A0B7955E41F
:1008DC00FD120D9D7FC0120F057BFF7A0B7963E42F
:1008EC00FD120D9D7508017F197E00020A003094DF
:1008FC0051D2A27F01120F057F81120F057BFF7A67
:10090C000B79737D01120D9D7FC2120F057BFF7A4F
:10091C000B79827D01120D9DE4FFFE7D047C42ABC0
:10092C0018AA17A916A81512020160025004C2A435
:10093C00C2B2309004C2A3C2A2E4F5087F64FE12D6
:10094C000E2DE4FFFE7D0C7C42AB18AA17A916A84D
:10095C0015120201604D404BD2A4D2B27F01120F8E
:10096C00057F81120F057BFF7A0A79C67D01120D76
:10097C009D7FC3120F057BFF7A0A79D57D01120D7D
:10098C009D7FC8120F05120D2C7D01120D9D209418
:10099C0002C2A2309004C2A3C2A2E4F5087F64FE96
:1009AC00120E2D209051D2A3D2A27F01120F057FDF
:1009BC0082120F057BFF7A0B798E7D01120D9D7FC4
:1009CC00C0120F057BFF7A0B799B7D01120D9D20C8
:1009DC009402C2A2E4FFFE7D047C42AB18AA17A9C4
:1009EC0016A81512020160025004C2A4C2B2E4F5AA
:1009FC00087F64FE120E2D309605C2A7020797D20F
:040A0C00A70207979F
:100DEB0041542B434D47463D310041542B434D4716
:100DFB00533D222B3931393538313033313133379B
:020E0B002200C3
:100E9800759850758920758DFDC298C299D28E2299
:0A0ED000C2998F993099FDC2992252
:100DC6008B098A0A890BAB09AA0AA90B1203396097
:100DD60013050BE50B7002050A14F9120339FF120D
:050DE6000ED080E222A6
:090EDA00C2983098FDAF99C2984E
:010EE30022EC
:100E0D007BFF7A0D79EB120DC67F327E00120E2D0F
:100E1D007BFF7A0D79F5120DC67F327E00020E2D05
:0E0EB7008F80D2A17F027E00120E2DC2A122DA
:100E85008F0DD2A0BD01077F197E00120E2DAF0D6B
:030E9500020EB793
:050F0500C2A0020EB7BE
:100D9D008B098A0A890B8D0CAB09AA0AA90B1203C0
:100DAD00396015050BE50B7002050A14F9120339AC
:090DBD00FFAD0C120E8580E0224E
:0F0EA8007F38120F057F06120F057F0C020F0512
:070EF700D292D291C29122B8
:090EEE00C292C291D292D291226B
:100E4B00E4FEC292EFA806088002C333D8FC30E759
:0D0E5B0003D38001C39291D2920EBE08E530
:010E68002267
:100E6900E4FFFEC292D29230910D7480A8060880E8
:0B0E790002C313D8FC42070EBE08E8BD
:010E8400224B
:0A0EE400C292D291D2922091FD2219
:070EFE00C292D291D29222B0
:0B0EC500C292C291D292C292D291223E
:10000300020324E86480F8E933E83360110460F004
:10001300ED33EC337009E8FCE9FDEAFEEBFF220463
:1000230060DED3EB9FEA9EE99DE8C2E78CF0C2F75E
:1000330095F0400CE8CCF8E9CDF9EACEFAEBCFFB2A
:100043001202EF85D0F05804700320D5B3E8047092
:10005300075002B2D502032E92D5EC0460F7E4CC2C
:10006300C0E0C398F8603B94186008400DD0E0FBF3
:10007300020306E4FBFAC9FC8028E830E406E4C97D
:10008300FBE4CAFCE830E305E4C9CACBFCE8540747
:100093006010F8C3E913F9EA13FAEB13FBEC13FC52
:1000A300D8F130F52FC3E49CFCEF9BFFEE9AFEEDF5
:1000B30099FDD0E0FBEF4E4D4C701222DB0302039F
:1000C3002BEC2CFCEF33FFEE33FEED33FDED30E78D
:1000D300EB020306EF2BFFEE3AFEED39FDD0E0FB1A
:1000E30050130BBB000302032EED13FDEE13FEEFC3
:0800F30013FFEC13FC020306ED
:1000FB00EC4D6011E8497017ED33EC3304600DE4FF
:10010B00FCFFFEFD22E933E8330470F802032412EE
:10011B0002EF58046009E4CC2481500628500902F0
:10012B00032E28400302032BC0E0EB4A7044B98036
:10013B0006D0E0FB02031AEF4E701CBD8008EBFFEC
:10014B00EAFEE9FD80EBE98DF0A4FEE5F00201E4A7
:10015B00E9CDF9EAFEEBFFEF89F0A4FCE5F0CE89DF
:10016B00F0A42EFFE435F0CD89F0A42DFEE435F09C
:10017B008067EF4E7005BD80D780C3EF8BF0A4ACCA
:10018B00F0EE8BF0A42CFCE435F0F8EF8AF0A42C05
:10019B00E5F038FCE433CB8DF0A42CFCE5F03BF818
:1001AB00EE8AF0A42CFCE5F038F8E433CF89F0A408
:1001BB002CFCE5F038CF3400CE89F0A42FFFE5F00E
:1001CB003EFEE433C98DF0A42EFEE5F039CD8AF066
:1001DB00A42FFFE5F03EFEE43DFD33D0E0FB5007DE
:1001EB000BBB000F02032EEC2CFCEF33FFEE33FEA8
:0601FB00ED33FD020306D6
:1002010074F8CC6480CCC86480C8F58204604FC3A4
:10021100EB9FF5F0EA9E42F0E99D42F0E89C45F043
:10022100603C501DE5825FFFE582D313CB5BCBF4CD
:100231002B5582FB50280ABA002409B900200880F6
:100241001DE5825BFBE582D313CF5FCFF4C3132F90
:100251005582FF50090EBE00050DBD00010CC3EB18
:100261009FF5F0EA9E42F0E99D42F0E89C45F0607E
:0902710007CC4820E701B3EC22A0
:10027A0075F020800E75F010800575F0087D007EFF
:10028A00007F003392D530D503120388EC33401037
:10029A00EF33FFEE33FEED33FDEC33FCD5F0ED2208
:0E02AA00E5F0247EA2D513CC92E7CDCEFF2244
:1002B800EDD2E7CD33EC3392D524814006E4FFFE3E
:1002C800FDFC22FCE4CFCECDCC24E0501174FF809D
:1002D800EDC3CC13CCCD13CDCE13CECF13CF04703A
:0702E800F030D5DE020388AF
:1002EF00E9D2E7C933E833F892D5EDD2E7CD33EC55
:0702FF0033FC5002B2D522CE
:10030600EC30E7100FBF000C0EBE00080DBD000458
:100316000BEB6014A2D5EB13FCED92E7FD2274FF04
:10032600FCFDFEFF22E480F8A2D574FF13FC7D805D
:03033600E480EF71
:03000000020CA04F
:0C0CA000787FE4F6D8FD758120020CE797
:10033900BB010689828A83E0225002E722BBFE02C2
:09034900E32289828A83E49322F5
:10035200C2D5EC30E709B2D5E4C39DFDE49CFCEEC6
:1003620030E715B2D5E4C39FFFE49EFE120396C3A5
:10037200E49DFDE49CFC800312039630D507C3E4A0
:060382009FFFE49EFE2235
:0E038800C3E49FFFE49EFEE49DFDE49CFC2286
:100CAC0002071CE493A3F8E493A34003F68001F23B
:100CBC0008DFF48029E493A3F85407240CC8C33349
:100CCC00C4540F4420C8834004F456800146F6DF18
:100CDC00E4800B0102040810204080900F0AE47E8F
:100CEC00019360BCA3FF543F30E509541FFEE4930D
:100CFC00A360010ECF54C025E060A840B8E493A3D4
:100D0C00FAE493A3F8E493A3C8C582C8CAC583CAFE
:100D1C00F0A3C8C582C8CAC583CADFE9DEE780BEB6
:010F0D0000E3
:10039600BC000BBE0029EF8DF084FFADF022E4CC4B
:1003A600F875F008EF2FFFEE33FEEC33FCEE9DEC14
:1003B600984005FCEE9DFE0FD5F0E9E4CEFD22ED5A
:1003C600F8F5F0EE8420D21CFEADF075F008EF2FA4
:1003D600FFED33FD4007985006D5F0F222C398FD95
:0503E6000FD5F0EA2232
:00000001FF
